:03000000020F30BC
:0C0F3000787FE4F6D8FD758121020D8E5B
:080EDF00C2B1D2B27F017E0016
:100EE700E4FDFCC3ED9FEC9E5015E4FBFA0BBB0041
:0F0EF700010ABA04F8BBFBF50DBD00010C80E445
:010F060022C8
:0F0EA4008F0B8E0A8D098C087F3C7E00120EE7A3
:100EB300D2B7C2B6120EE3D2B620B4FDC2B7AC901D
:100EC300E4120B218F1B8E1A8D198C187F037E0061
:0B0ED300120EE7AF1BAE1AAD19AC18F1
:010EDE0022F1
:0C0F07007F0E120F137F01120F137F06E4
:0A0F13008FA0C2B0120EDFC2B2229E
:060F1D007F007E007C4213
:0D0F2300120B558FA0D2B0120EDFC2B22209
:080C81008F1B8E1A8D198C18CF
:100C8900E4F51CF51DF51EF51FFFFE7D207C41AB2B
:100C99001BAA1AA919A8181208F8120B558E208F29
:100CA90021E4FBFA79C87842AF1BAE1AAD19AC182A
:100CB900120A01120B558F1EE51E600C2430FDE44B
:100CC90033FC120B1C120F23AF1E7E007C007D64C7
:100CD900120BD6AC06AD07EC120B1CA804A905AA89
:100CE90006AB07AF1BAE1AAD19AC18120803120BED
:100CF900558F1DE51D75F00A84F51DE51E7004E587
:100D09001D600EE51D2430FDE433FC120B1C120F8F
:100D190023AF1E7E007C007D64120BD6AC06AD07A6
:100D2900EC120B1CA804A905AA06AB07AF1BAE1A47
:100D3900AD19AC18120803120B558F1CE51D75F07F
:100D49000AA4FFC3E51C9FF51C2430FDE433FC1203
:100D59000B1C120F237D38120F1DAE20AF217C0012
:100D69007D0A120BE88D1FE51F2430FDE433FC12C8
:100D79000B1C120F237D00120F1D7F007E007D8644
:050D89007C42020F2373
:100E4900120F077F007E007DA47C42120F237F00D2
:100E59007E007D8A7C42120F237F007E007D827C8A
:100E690042120F237F007E007D887C42120F237F70
:100E7900007E007D927C42120F237F007E007D9CC4
:100E89007C42120F237F007E007D8E7C42120F234D
:0B0E99007F007E007D007C42020F23E2
:100D8E00E4F580120E49120EB3120EA48F138E12BA
:100D9E008D118C107F3C7E00120EE7AF13AE12AD9C
:100DAE0011AC10AB0BAA0AA909A808120A9E70D69C
:100DBE00E4F50FF50E750D20750C43AF0FAE0EADAD
:100DCE000DAC0CAB0BAA0AA909A8081208F8E4FB93
:100DDE00FA797F7843120A018F0B8E0A8D098C08DF
:100DEE00120F07AF0BAE0AAD09AC08120C817F2CA7
:100DFE007E01120EE7120EB3120EA48F138E128DF9
:100E0E00118C10120EAC8F178E168D158C14AF130D
:100E1E00AE12AD11AC10AB0BAA0AA909A808120AA2
:100E2E009E70D2AF17AE16AD15AC14AB13AA12A9A5
:0B0E3E0011A810120A9E70BD020DBE2C
:10080000020BC1E86480F8E933E83360110460F05A
:10081000ED33EC337009E8FCE9FDEAFEEBFF22045E
:1008200060DED3EB9FEA9EE99DE8C2E78CF0C2F759
:1008300095F0400CE8CCF8E9CDF9EACEFAEBCFFB25
:10084000120B8C85D0F05804700320D5B3E80470E7
:10085000075002B2D5020BCB92D5EC0460F7E4CC82
:10086000C0E0C398F8603B94186008400DD0E0FBEE
:10087000020BA3E4FBFAC9FC8028E830E406E4C9D3
:10088000FBE4CAFCE830E305E4C9CACBFCE8540742
:100890006010F8C3E913F9EA13FAEB13FBEC13FC4D
:1008A000D8F130F52FC3E49CFCEF9BFFEE9AFEEDF0
:1008B00099FDD0E0FBEF4E4D4C701222DB03020B92
:1008C000C8EC2CFCEF33FFEE33FEED33FDED30E7EB
:1008D000EB020BA3EF2BFFEE3AFEED39FDD0E0FB70
:1008E00050130BBB0003020BCBED13FDEE13FEEF19
:0808F00013FFEC13FC020BA343
:1008F800EC4D6011E8497017ED33EC3304600DE4FA
:10090800FCFFFEFD22E933E8330470F8020BC11244
:100918000B8C58046009E4CC248150062850090245
:100928000BCB284003020BC8C0E0EB4A7044B980E7
:1009380006D0E0FB020BB7EF4E701CBD8008EBFF42
:10094800EAFEE9FD80EBE98DF0A4FEE5F00209E19D
:10095800E9CDF9EAFEEBFFEF89F0A4FCE5F0CE89DA
:10096800F0A42EFFE435F0CD89F0A42DFEE435F097
:100978008067EF4E7005BD80D780C3EF8BF0A4ACC5
:10098800F0EE8BF0A42CFCE435F0F8EF8AF0A42C00
:10099800E5F038FCE433CB8DF0A42CFCE5F03BF813
:1009A800EE8AF0A42CFCE5F038F8E433CF89F0A403
:1009B8002CFCE5F038CF3400CE89F0A42FFFE5F009
:1009C8003EFEE433C98DF0A42EFEE5F039CD8AF061
:1009D800A42FFFE5F03EFEE43DFD33D0E0FB5007D9
:1009E8000BBB000F020BCBEC2CFCEF33FFEE33FEFE
:0609F800ED33FD020BA32C
:1009FE00020BCBEC5D046005E859047003020BC1D9
:100A0E00120B8C580460F6EC4860F2EC7004FDFE9C
:100A1E00FF22C860DB2481C85009C39860025006CB
:100A2E00020BC89850CAF582E9294B4A7005AB8271
:100A3E00020BB775F0007C1A7880C3EF9BEE9AED2F
:100A4E0099400DC3EF9BFFEE9AFEED99FDE842F043
:100A5E00DC23ACF0D0E0FFD0E0FED0E0FDAB822096
:100A6E00E7101BEB60BAEC2CFCEF33FFEE33FEED20
:100A7E0033FD020BA3E803F830E705C0F075F00074
:100A8E00EF2FFFEE33FEED33FD40B830E7C280AA04
:100A9E0074F8CC6480CCC86480C8F58204604FC3FF
:100AAE00EB9FF5F0EA9E42F0E99D42F0E89C45F09E
:100ABE00603C501DE5825FFFE582D313CB5BCBF428
:100ACE002B5582FB50280ABA002409B90020088051
:100ADE001DE5825BFBE582D313CF5FCFF4C3132FEB
:100AEE005582FF50090EBE00050DBD00010CC3EB73
:100AFE009FF5F0EA9E42F0E99D42F0E89C45F060D9
:090B0E0007CC4820E701B3EC22FA
:100B170075F020800E75F010800575F0087D007E59
:100B2700007F003392D530D503120C1EEC334010F2
:100B3700EF33FFEE33FEED33FDEC33FCD5F0ED2262
:0E0B4700E5F0247EA2D513CC92E7CDCEFF229E
:100B5500EDD2E7CD33EC3392D524814006E4FFFE98
:100B6500FDFC22FCE4CFCECDCC24E0501174FF80F7
:100B7500EDC3CC13CCCD13CDCE13CECF13CF047094
:070B8500F030D5DE020C1E6A
:100B8C00E9D2E7C933E833F892D5EDD2E7CD33ECAF
:070B9C0033FC5002B2D52228
:100BA300EC30E7100FBF000C0EBE00080DBD0004B3
:100BB3000BEB6014A2D5EB13FCED92E7FD2274FF5F
:100BC300FCFDFEFF22E480F8A2D574FF13FC7D80B8
:030BD300E480EFCC
:100BD600EF8DF0A4A8F0CF8CF0A428CE8DF0A42E33
:020BE600FE22ED
:100BE800C2D5EC30E709B2D5E4C39DFDE49CFCEE28
:100BF80030E715B2D5E4C39FFFE49EFE120C2CC368
:100C0800E49DFDE49CFC8003120C2C30D507C3E462
:060C18009FFFE49EFE2296
:0E0C1E00C3E49FFFE49EFEE49DFDE49CFC22E7
:100C2C00BC000BBE0029EF8DF084FFADF022E4CCAC
:100C3C00F875F008EF2FFFEE33FEEC33FCEE9DEC75
:100C4C00984005FCEE9DFE0FD5F0E9E4CEFD22EDBB
:100C5C00F8F5F0EE8420D21CFEADF075F008EF2F05
:100C6C00FFED33FD4007985006D5F0F222C398FDF6
:050C7C000FD5F0EA2293
:00000001FF
